:100000000C9434000C9451000C9451000C94510049
:100010000C9451000C9451000C9451000C9451001C
:100020000C9451000C9451000C9451000C9451000C
:100030000C9451000C9451000C9477010C945100D5
:100040000C9451000C9451000C9451000C945100EC
:100050000C9451000C9451000C9451000C945100DC
:100060000C9451000C94510011241FBECFEFD8E026
:10007000DEBFCDBF11E0A0E0B1E0E8E7F4E002C0F0
:1000800005900D92A630B107D9F723E0A6E0B1E0C4
:1000900001C01D92AC3DB207E1F70E94D9010C945A
:1000A0003A020C9400008093040108954F925F92ED
:1000B0006F927F928F929F92AF92BF92CF92DF9278
:1000C000EF92FF92CF93DF9300D000D000D0CDB756
:1000D000DEB79E838D83DC014D905D906D907C90AA
:1000E000272D332744275527862F90E0A0E0B0E046
:1000F00089839A83AB83BC83BC01CD010E94EE014E
:100100002FEF30E040E050E00E94FE01F22EEE249E
:10011000DD24CC24A62DB0E029813A814B815C817D
:100120000E942F022FEF30E040E050E00E94FE01DD
:100130005901992488248C289D28AE28BF28A52DF4
:10014000B0E029813A814B815C810E942F022FEF20
:1001500030E040E050E00E94FE01B42FA32F922F28
:100160008827882A992AAA2ABB2AA42DB0E02981A7
:100170003A814B815C810E942F022FEF30E040E0FA
:1001800050E00E94FE01822A932AA42AB52AAD815A
:10019000BE818D929D92AD92BC92139726960FB61A
:1001A000F894DEBF0FBECDBFDF91CF91FF90EF90EF
:1001B000DF90CF90BF90AF909F908F907F906F9087
:1001C0005F904F9008950F931F93CF93DF9300D0CC
:1001D00000D0CDB7DEB749835A836B837C832091EF
:1001E0000201309103018217930738F0209100013A
:1001F0003091010182179307C0F08C0160910401D6
:10020000CE0101960E94560029813A814B815C8182
:10021000C801880F991F880F991FFC01E85FFE4FE6
:1002200051834083328323830BC0880F991F880F2B
:10023000991FFC01E85FFE4F118210821282138227
:100240000F900F900F900F90DF91CF911F910F9112
:100250000895CF92DF92EF92FF92CF93DF936B01DD
:100260007C01C0E0D0E006C0B701A601CE010E942B
:10027000E3002196C43BD105BCF3DF91CF91FF9001
:10028000EF90DF90CF90089560E070E0CB010E9486
:100290002901089564EB70E088E091E00E94A901D3
:1002A00008950F931F93E22F90E0A0E0B0E0B82FE5
:1002B000AA2799278827062F10E020E030E0980130
:1002C00011270027802B912BA22BB32B50E060E04D
:1002D00070E0762F652F542F4427842B952BA62B67
:1002E000B72BBC01CD016E2B1F910F9108951F926A
:1002F0000F920FB60F9211242F938F939F9380919B
:1003000006019091070181369A4E20F01092070164
:100310001092060180910601909107010196909339
:100320000701809306019F918F912F910F900FBE2F
:100330000F901F90189585B5836085BD8BEE87BDA6
:10034000EEE6F0E080818260808384B5826084BDC7
:100350000895FC01660F771F660F771F84B18460D4
:1003600084B9A5B1AB7F55B15460BFB7F89415C03F
:100370009F012F5F3F4F408168E055B9000007F4AF
:1003800047FFA5B9440F000007F407F407F4A5B927
:1003900007F46A9591F7BC01F901CB010197672B2E
:1003A00039F7BFBF8FEA94E00197F1F700C0000072
:1003B00008950E949B018FEF0E9453000E94440108
:1003C0000E944A0178942FEF42E362E382E30E94A5
:1003D00051010E9429010E944A01F5CFDB018F9350
:1003E0009F930E942F02BF91AF91A29F800D911DFC
:1003F000A39F900DB29F900D11240895A1E21A2E93
:10040000AA1BBB1BFD010DC0AA1FBB1FEE1FFF1FB8
:10041000A217B307E407F50720F0A21BB30BE40B08
:10042000F50B661F771F881F991F1A9469F760954F
:100430007095809590959B01AC01BD01CF01089509
:10044000A29FB001B39FC001A39F700D811D112415
:10045000911DB29F700D811D1124911D08950E9460
:100460002002A59F900DB49F900DA49F800D911D1B
:0804700011240895F894FFCF58
:06047800FFFFFFFFFF0083
:00000001FF
