S0190000534B3638313272676277206472697665722E737265633E
S11300000C9434000C9451000C9451000C94510045
S11300100C9465000C9451000C9451000C94510004
S11300200C9451000C9451000C9451000C94510008
S11300300C9451000C9451000C9474020C945100D3
S11300400C9451000C9451000C9451000C945100E8
S11300500C9451000C9451000C9451000C945100D8
S11300600C9451000C94510011241FBECFEFD8E022
S1130070DEBFCDBF11E0A0E0B1E0E8E6F7E002C0EA
S113008005900D92A630B107D9F723E0A6E0B1E0C0
S113009001C01D92AF3EB207E1F70E94CE020C945C
S11300A0B2030C940000259A87B1887F87B988B180
S11300B0876088B9E8E6F0E0808182608083ECE6BE
S11300C0F0E080818760808308951F920F920FB6BD
S11300D00F9211248F93309903C081E0809306011D
S11300E0319903C081E080930701329903C081E014
S11300F0809308018F910F900FBE0F901F90189559
S113010090930301809302017093010160930001B5
S113011008954F925F926F927F928F929F92AF92C7
S1130120BF92CF92DF92EF92FF920F931F93CF93E0
S1130130DF9300D000D000D0CDB7DEB769837A83D7
S11301408B839C8360910201709103017E836D8394
S11301500091000110910101C0900401D12CE12C07
S1130160F12C89819A81AB81BC812B2F33274427C1
S11301705527C701B6010E946603412C512C320158
S11301804A94A30192010E947603B22EAA249924D0
S113019088249981A92FB0E0A70196010E94A703A2
S11301A0A30192010E947603822A932AA42AB52AE3
S11301B06B81A62FB0E0A70196010E94A703A301BB
S11301C092010E947603D90199278827882A992ABF
S11301D0AA2ABB2A7A81A72FB0E0A70196010E9420
S11301E0A703A30192010E947603B42FA32F922F99
S11301F08827882A992AAA2ABB2A4B2D3A2D292DE9
S1130200EBE1F1E080E090E009C0118210821282FB
S1130210138201963496843B910589F0AD81BE81A9
S11302208A179B0718F08017910778F3418330836E
S11302302283838201963496843B910579F726962E
S11302400FB6F894DEBF0FBECDBFDF91CF911F91E3
S11302500F91FF90EF90DF90CF90BF90AF909F9061
S11302608F907F906F905F904F900895EBE1F1E055
S113027080E090E0118210821282138201963496FB
S1130280843B9105B9F7089580930401089564EBC4
S113029070E08BE191E00C94A2020F931F93962FD0
S11302A0342F422F50E060E070E0532B692B8A0119
S11302B09B01382BC901B8011F910F9108954F92EA
S11302C05F926F927F928F929F92AF92BF92CF92E2
S11302D0DF92EF92FF92CF93DF9300D000D000D053
S11302E0CDB7DEB749835A836B837C8320910F019A
S11302F02111CDC022273327281B390B90930C01E1
S113030080930B0181E080930F014091090150918A
S11303100A015E834D83809102019091030137FDB0
S11303200BC0F901EE0FFF1FEE0FFF1FE55EFE4F3E
S113033011821082128213822F5F3F4F243B3105BA
S11303400CF0A0C030930E0120930D012D813E814D
S11303502817390798F0809100019091010128171E
S1130360390760F4F901EE0FFF1FEE0FFF1FE55E82
S1130370FE4F11821082128213825DC0C09004016C
S1130380D12CE12CF12C89819A81AB81BC812B2F5A
S1130390332744275527C701B6010E946603412C21
S11303A0512C32014A94A30192010E947603B22E89
S11303B0AA24992488249981A92FB0E0A701960141
S11303C00E94A703A30192010E947603822A932A22
S11303D0A42AB52A2B81A22FB0E0A70196010E947E
S11303E0A703A30192010E947603D90199278827C4
S11303F0882A992AAA2ABB2A3A81A32FB0E0A70106
S113040096010E94A703A30192010E947603B42FD0
S1130410A32F922F8827882A992AAA2ABB2AED81FA
S1130420FE81EE0FFF1FEE0FFF1FE55EFE4FB18250
S1130430A082928283824D815E814F5F5F4F5A8397
S11304404983443B5105C4F110920A0110920901F9
S113045064EB70E08BE191E026960FB6F894DEBF72
S11304600FBECDBFDF91CF91FF90EF90DF90CF9083
S1130470BF90AF909F908F907F906F905F904F90C0
S11304800C94A20210920E0110920D015FCF2091E4
S11304900B0130910C018217930799F0A091090187
S11304A0B0910A01BE83AD832A173B07A9F02091BE
S11304B00D0130910E012FCF50930A014093090191
S11304C0C7CF8091090190910A019E838D83209169
S11304D00D0130910E011FCF9D01281B390B909304
S11304E00C0180930B0117CF1F920F920FB60F923E
S11304F011242F938F939F93809110019091110158
S113050081362AEE920770F081E090E09093110119
S1130510809310019F918F912F910F900FBE0F9098
S11305201F9018950196F2CF85B5836085BD8BEE3B
S113053087BDEEE6F0E080818260808384B58260CE
S113054084BD0895660F771F660F771F3D9A28B103
S11305502F7D38B130624FB7F89461157105B1F051
S1130560FC01680F791F819198E038B9000007F405
S113057087FF28B9880F000007F407F407F428B9A7
S113058007F49A9591F7E617F70769F74FBF8FE3DA
S113059091E00197F1F700C000000895109218014E
S11305A081E0809319010E94940264E270E080E08B
S11305B090E00E9480008FEF0E9444010E94360167
S11305C00E9447010E9453007894C1E0D4E013E0F4
S11305D020E04FEF6FEF8FEF0E944D016093140105
S11305E070931501809316019093170120911901BE
S11305F02093180130910601332339F03091120110
S11306003C273093120110920601309107013323E5
S113061009F1C0931201D0931801109313011092A1
S11306200701209108012223F1F1C0931201D09314
S1130630180110921301109208010E9489000E946F
S1130640470184E090911201911101C081E08093EF
S11306501901BECF309108013111E7CF233059F190
S113066090F4213021F0223061F482E0EBCF0E943B
S113067036010E94470180911201882339F384E0F6
S1130680E6CF85E0DFCF2430C1F02530D1F720E07C
S113069040E060E08AE00E944D010E9489000E94CF
S11306A0470185E0CFCFAB01BC018AE090E00E9416
S11306B05F0184E0C7CF80E0C5CF209113012223DE
S11306C009F4BBCF233079F384E0BCCFDB018F93F3
S11306D09F930E94A703BF91AF91A29F800D911D8C
S11306E0A39F900DB29F900D11240895A1E21A2E9C
S11306F0AA1BBB1BFD010DC0AA1FBB1FEE1FFF1FC2
S1130700A217B307E407F50720F0A21BB30BE40B11
S1130710F50B661F771F881F991F1A9469F7609558
S11307207095809590959B01AC01BD01CF01089512
S1130730A29FB001B39FC001A39F700D811D11241E
S1130740911DB29F700D811D1124911D08950E9469
S11307509803A59F900DB49F900DA49F800D911DAB
S10B076011240895F894FFCF61
S1090768FFFFFFFFFF008C
S9030000FC
