S0190000534B3638313272676277206472697665722E737265633E
S11300000C9434000C9451000C9451000C94510045
S11300100C9466000C9451000C9451000C94510003
S11300200C9451000C9451000C9451000C94510008
S11300300C9451000C9451000C9481000C945100C8
S11300400C9451000C9451000C9451000C945100E8
S11300500C9451000C9451000C9451000C945100D8
S11300600C9451000C94510011241FBECFEFD8E022
S1130070DEBFCDBF11E0A0E0B1E0E2E9F1E002C0F3
S113008005900D92A030B107D9F721E0A0E0B1E0CE
S113009001C01D92A530B207E1F70E94AF000C9495
S11300A0C7000C940000259A87B1887F87B988B16E
S11300B0876088B9E8E6F0E0808181608083ECE6BF
S11300C0F0E0808187608083789408951F920F9276
S11300D00FB60F9211248F93309903C081E080935F
S11300E00001319903C081E080930101329903C07A
S11300F081E0809302018F910F900FBE0F901F90AB
S113010018951F920F920FB60F9211242F938F936D
S11301109F93809103019091040181362AEE920706
S113012070F081E090E090930401809303019F912B
S11301308F912F910F900FBE0F901F9018950196DD
S1130140F2CF85B5836085BD8BEE87BDEEE6F0E02A
S113015080818260808384B5826084BD08950E941A
S1130160A1000E94530078940AC02D982FEF80E7D5
S113017092E0215080409040E1F700C0000080915F
S11301800001813091F72D9A10920001EFCFF8947D
S1050190FFCF9B
S9030000FC
