:100000000C943F000C945C000C945C000C945C001D
:100010000C9470000C945C000C945C000C945C00DC
:100020000C945C000C945C000C945C000C945C00E0
:100030000C945C000C945C000C94510C0C945C00CF
:100040000C945C000C945C000C945C000C945C00C0
:100050000C945C000C945C000C945C000C945C00B0
:100060000C945C000C945C00360DB80DAA0DA20D2A
:10007000940D0A0D840D760D6A0D620D540D112438
:100080001FBECFEFD8E0DEBFCDBF11E0A0E0B1E0F2
:10009000E2E4FCE102C005900D92A830B107D9F767
:1000A00023E0A8E0B1E001C01D92AA3FB207E1F74A
:1000B0000E94AB0C0C941F0E0C940000259A87B183
:1000C000887F87B988B1876088B9E8E6F0E08081E9
:1000D00082608083ECE6F0E0808187608083089511
:1000E0001F920F920FB60F9211248F93309903C075
:1000F00081E080930801319903C081E08093090178
:10010000329903C081E080930A018F910F900FBE56
:100110000F901F90189590930501809304017093A0
:1001200003016093020108954F925F926F927F9254
:100130008F929F92AF92BF92CF92DF92EF92FF92F7
:100140000F931F93CF93DF9300D000D000D0CDB793
:10015000DEB769837A838B839C83609104017091FD
:1001600005017E836D830091020110910301C0900F
:100170000601D12CE12CF12C89819A81AB81BC81C3
:100180002B2F332744275527C701B6010E94CD0DD9
:10019000412C512C32014A94A30192010E94DD0DA1
:1001A000B22EAA24992488249981A92FB0E0A7010E
:1001B00096010E94140EA30192010E94DD0D822A75
:1001C000932AA42AB52A6B81A62FB0E0A701960135
:1001D0000E94140EA30192010E94DD0DD9019927FE
:1001E0008827882A992AAA2ABB2A7A81A72FB0E0D1
:1001F000A70196010E94140EA30192010E94DD0D39
:10020000B42FA32F922F8827882A992AAA2ABB2A9B
:100210004B2D3A2D292DE6E2F1E080E090E009C077
:10022000118210821282138201963496843B9105CA
:1002300089F0AD81BE818A179B0718F0801791075E
:1002400078F3418330832283838201963496843B02
:10025000910579F726960FB6F894DEBF0FBECDBF95
:10026000DF91CF911F910F91FF90EF90DF90CF9092
:10027000BF90AF909F908F907F906F905F904F90C6
:100280000895E6E2F1E080E090E0118210821282AF
:10029000138201963496843B9105B9F708958093B3
:1002A0000601089564EB70E086E291E00C947F0C07
:1002B0000F931F93962F342F422F50E060E070E091
:1002C000532B692B8A019B01382BC901B8011F915F
:1002D0000F9108954F925F926F927F928F929F92AB
:1002E000AF92BF92CF92DF92EF92FF92CF93DF93C4
:1002F0006A017B012091000130910101243B31050D
:1003000094F44091150150911601443B510504F1BC
:10031000820F931F909301018093000110921601A8
:100320001092150106C081E090E090930101809346
:100330000001DF91CF91FF90EF90DF90CF90BF90C1
:10034000AF909F908F907F906F905F904F900895A7
:10035000809114018111B6C088279927821B930BC5
:10036000309311012093100121E020931401C091DA
:100370000E01D0910F01209104013091050197FDEC
:100380000BC0FC01EE0FFF1FEE0FFF1FEA5DFE4FDB
:1003900011821082128213820196843B91050CF027
:1003A0008CC09093130180931201C217D30758F1A8
:1003B0008091020190910301C817D90720F5FE0131
:1003C000EE0FFF1FEE0FFF1FEA5DFE4F118210823E
:1003D000128213822196C43BD1050CF486C0109280
:1003E0000F0110920E0164EB70E086E291E00E9432
:1003F0007F0C809115019091160101969093160142
:100400008093150196CF80900601912CA12CB12CE0
:100410002F2D332744275527C501B4010E94CD0D48
:100420002FEF30E040E050E00E94DD0D722E662498
:1004300055244424AC2DB0E0A50194010E94140E73
:100440002FEF30E040E050E00E94DD0D422A532AB9
:10045000642A752AAE2DB0E0A50194010E94140E05
:100460002FEF30E040E050E00E94DD0DD9019927E8
:100470008827482A592A6A2A7B2AAD2DB0E0A5018F
:1004800094010E94140E2FEF30E040E050E00E94F3
:10049000DD0DB42FA32F922F8827482A592A6A2AC4
:1004A0007B2AFE01EE0FFF1FEE0FFF1FEA5DFE4FDE
:1004B00071826082528243828DCF1092130110921A
:1004C000120173CF8091100190911101C0910E0122
:1004D000D0910F012817390719F08C179D0751F09B
:1004E000809112019091130146CFD0930F01C093D8
:1004F0000E0179CFCE01821B930B30931101209313
:10050000100139CF2F923F924F925F926F927F925C
:100510008F929F92AF92BF92CF92DF92EF92FF9213
:100520000F931F93CF93DF93CDB7DEB766970FB6C8
:10053000F894DEBF0FBECDBF9C8B8B8B872F992786
:10054000AA27BB278B839C83AD83BE83862F90E035
:10055000A0E0B0E08F839887A987BA87852F90E0C5
:10056000A0E0B0E08B879C87AD87BE87AFEFBFEF81
:10057000BA83A98322242394312C812C912C5401F9
:100580008A94DB01CA019927AA27BB278F87988BFA
:10059000A98BBA8B04EB10E059C089819A81309203
:1005A000110120921001A1E0A093140120910E01ED
:1005B00030910F013E8B2D8B20910401309105016C
:1005C00097FD0BC0FC01EE0FFF1FEE0FFF1FEA5D52
:1005D000FE4F11821082128213820196843B910594
:1005E0000CF0B5C090931301809312018D899E8900
:1005F0008217930708F446C0DC01809102019091B4
:100600000301A817B90708F03DC0FD01EE0FFF1F59
:10061000EE0FFF1FEA5DFE4F1182108212821382DD
:100620002D893E892F5F3F4F243B31050CF48AC052
:1006300010920F0110920E0164EB70E086E291E0DF
:100640000E947F0C0150110909F499C08091140196
:10065000882309F4A2CF8091100190911101821595
:10066000930509F479C020910E0130910F013E8B62
:100670002D8B8217930709F47AC080911201909113
:1006800013019ACFC0900601D12CE12CF12C2B81C3
:100690003C814D815E81C701B6010E94CD0DA5014F
:1006A00094010E94DD0D722E6624552444242F856A
:1006B000388949895A89C701B6010E94CD0DA50123
:1006C00094010E94DD0D422A532A642A752AA7014B
:1006D00096016F81788589859A850E94CD0DA50147
:1006E00094010E94DD0DD90199278827482A592AAB
:1006F0006A2A7B2AA70196016B857C858D859E855C
:100700000E94CD0DA50194010E94DD0DB42FA32FF1
:10071000922F8827482A592A6A2A7B2AED89FE893E
:10072000EE0FFF1FEE0FFF1FEA5DFE4F718260822A
:10073000528243822D893E892F5F3F4F243B3105F2
:100740000CF076CF30930F0120930E0175CF1092ED
:100750001301109212014ACF80911201909113015E
:10076000A0910E01B0910F01BE8BAD8B25CFC901B9
:100770008219930930921101209210011DCF8B89AB
:100780009C89280E391EA981BA81A81BB90BBA838E
:10079000A983B4EB2B1631040CF4FCCE66960FB68D
:1007A000F894DEBF0FBECDBFDF91CF911F910F91A7
:1007B000FF90EF90DF90CF90BF90AF909F908F9081
:1007C0007F906F905F904F903F902F9008954F9241
:1007D0005F926F927F928F929F92AF92BF92CF92D1
:1007E000DF92EF92FF92CF93DF9300D000D000D042
:1007F000CDB7DEB749835A836B837C832091140184
:100800002111CDC022273327281B390B90931101CA
:100810008093100181E08093140140910E0150916A
:100820000F015E834D83809104019091050137FD96
:100830000BC0F901EE0FFF1FEE0FFF1FEA5DFE4F29
:1008400011821082128213822F5F3F4F243B3105A9
:100850000CF0A0C030931301209312012D813E8132
:100860002817390798F08091020190910301281709
:10087000390760F4F901EE0FFF1FEE0FFF1FEA5D6D
:10088000FE4F11821082128213825DC0C090060159
:10089000D12CE12CF12C89819A81AB81BC812B2F49
:1008A000332744275527C701B6010E94CD0D412C9F
:1008B000512C32014A94A30192010E94DD0DB22E07
:1008C000AA24992488249981A92FB0E0A701960130
:1008D0000E94140EA30192010E94DD0D822A932A28
:1008E000A42AB52A2B81A22FB0E0A70196010E946D
:1008F000140EA30192010E94DD0DD90199278827CA
:10090000882A992AAA2ABB2A3A81A32FB0E0A701F4
:1009100096010E94140EA30192010E94DD0DB42FD6
:10092000A32F922F8827882A992AAA2ABB2AED81E9
:10093000FE81EE0FFF1FEE0FFF1FEA5DFE4FB1823B
:10094000A082928283824D815E814F5F5F4F5A8386
:100950004983443B5105C4F110920F0110920E01DE
:1009600064EB70E086E291E026960FB6F894DEBF65
:100970000FBECDBFDF91CF91FF90EF90DF90CF9072
:10098000BF90AF909F908F907F906F905F904F90AF
:100990000C947F0C10921301109212015FCF2091E2
:1009A0001001309111018217930799F0A0910E0167
:1009B000B0910F01BE83AD832A173B07A9F02091A8
:1009C0001201309113012FCF50930F0140930E016C
:1009D000C7CF80910E0190910F019E838D8320914E
:1009E0001201309113011FCF9D01281B390B9093E9
:1009F00011018093100117CFFC0180911901909192
:100A00001A019B01280F391F30931A0120931901F5
:100A1000AAEFB5E00E94050EDC01CB019058AF4F64
:100A2000BF4FCD01BB2797FDB095AB2F8E3F41E067
:100A3000940748F58F3F910508F45AC02EEF422FD6
:100A4000481B50E060E070E0742F6627552744276C
:100A50006F6F8091000190910101843B910564F5D5
:100A60002091150130911601243B31050CF469C029
:100A70008E0F9F1F90930101809300011092160129
:100A80001092150108958C3F43E09407E0F48D3FE8
:100A900042E09407F0F542E0480F50E060E070E07B
:100AA0005F6F762F652F542F44278091000190911E
:100AB0000101843B9105A4F281E090E09093010153
:100AC0008093000108958A3F45E09407A9F18B3F88
:100AD00044E0940708F441C02AEF422F481B50E03D
:100AE00060E070E06F6F762F652F542F4427B1CFF1
:100AF000482F50E060E070E0762F652F542F442798
:100B00004427662777276F6F762F652F542F44274A
:100B1000A0CF2CEF422F481B50E060E070E0762F12
:100B2000652F542F44274427662777274F6F762F4A
:100B3000652F542F44278DCF40E050E060E07FEFD9
:100B400088CF0E94E70380911501909116010196CC
:100B50009093160180931501089544E0480F50E0EA
:100B600060E070E0742F6627552744275F6F71CFD0
:100B7000FC0180911701909118019B01280F391FEA
:100B80003093180120931701AAEFB5E00E94050EDB
:100B9000DC01CB019058AF4FBF4FCD01BB2797FD74
:100BA000B095AB2F8E3F41E0940748F58F3F9105FC
:100BB00008F45AC02EEF422F481B50E060E070E06E
:100BC000742F6627552744276F6F809100019091FD
:100BD0000101843B910564F52091150130911601C6
:100BE000243B31050CF469C08E0F9F1F90930101C7
:100BF00080930001109216011092150108958C3F08
:100C000043E09407E0F48D3F42E09407F0F542E0C2
:100C1000480F50E060E070E05F6F762F652F542F33
:100C200044278091000190910101843B9105A4F239
:100C300081E090E0909301018093000108958A3F44
:100C400045E09407A9F18B3F44E0940708F441C0C4
:100C50002AEF422F481B50E060E070E06F6F762F64
:100C6000652F542F4427B1CF482F50E060E070E04B
:100C7000762F652F542F44274427662777276F6FD9
:100C8000762F652F542F4427A0CF2CEF422F481BDF
:100C900050E060E070E0762F652F542F4427442702
:100CA000662777274F6F762F652F542F44278DCFD8
:100CB00040E050E060E07FEF88CF0E94E703809142
:100CC00015019091160101969093160180931501DC
:100CD000089544E0480F50E060E070E0742F66270C
:100CE000552744275F6F71CF2F923F924F925F92AB
:100CF0006F927F928F929F92AF92BF92CF92DF922C
:100D0000EF92FF920F931F93CF93DF93CDB7DEB790
:100D100068970FB6F894DEBF0FBECDBF9A83898364
:100D20004F87588B698B7A8B872F9927AA27BB27E8
:100D30008B839C83AD83BE839989892F90E0A0E04B
:100D4000B0E08F839887A987BA879889892F90E028
:100D5000A0E0B0E08B879C87AD87BE87A6E2B1E0BC
:100D6000B88FAF8B212C312C812C912C54018A947B
:100D7000DB01CA019927AA27BB278B8B9C8BAD8BE4
:100D8000BE8B2BC0EF89F88D1182108212821382E4
:100D9000C10129813A81821B930B97FD8AC0880F7C
:100DA000991F880F991FFC01EA5DFE4F1182108286
:100DB0001282138264EB70E086E291E00E947F0C65
:100DC0003FEF231A330A8F89988D0496988F8F8B63
:100DD00094EB2916310409F46FC0009104011091BD
:100DE00005012016310638F080910201909103012F
:100DF0002816390638F2C0900601D12CE12CF12CCE
:100E00002B813C814D815E81C701B6010E94CD0DD1
:100E1000A50194010E94DD0D722E66245524442400
:100E20002B893C894D895E89C701B6010E94CD0D91
:100E3000A50194010E94DD0D422A532A642A752AD5
:100E4000A70196016F81788589859A850E94CD0DCD
:100E5000A50194010E94DD0DD90199278827482A10
:100E6000592A6A2A7B2AA70196016B857C858D8584
:100E70009E850E94CD0DA50194010E94DD0DB42F29
:100E8000A32F922F8827482A592A6A2A7B2AAF89BA
:100E9000B88D11967C9211976C9212965C92129773
:100EA00013964C92C10129813A81821B930B97FFC3
:100EB00076CF80E090E073CFF2EF2F2EF3E03F2E5D
:100EC000A3EBB0E0BC8BAB8B812C912C54018A94AA
:100ED0008F859889A989BA899927AA27BB278F87DF
:100EE000988BA98BBA8B34C0D10111961C921197A3
:100EF0001C9212961C92129713961C9289819A81C9
:100F0000EB89FC898E0F9F1F843B910514F083EBC6
:100F100090E0880F991F880F991FFC01EA5DFE4F32
:100F2000118210821282138264EB70E086E291E0FB
:100F30000E947F0C2B893C89215031093C8B2B8BE3
:100F400034E0231A31088B899C89019609F463C027
:100F50000091040110910501AB89BC89A017B1076C
:100F600040F08091020190910301A817B90708F49D
:100F7000BBCFC0900601D12CE12CF12C2B813C8100
:100F80004D815E81C701B6010E94CD0DA50194017E
:100F90000E94DD0D722E6624552444242F85388945
:100FA00049895A89C701B6010E94CD0DA501940156
:100FB0000E94DD0D422A532A642A752A2F81388522
:100FC00049855A85C701B6010E94CD0DA50194013E
:100FD0000E94DD0DD90199278827482A592A6A2AB3
:100FE0007B2A2B853C854D855E85C701B6010E9415
:100FF000CD0DA50194010E94DD0DB42FA32F922FDA
:101000008827482A592A6A2A7B2AF101718260823C
:101010005282438273CF68960FB6F894DEBF0FBE3C
:10102000CDBFDF91CF911F910F91FF90EF90DF9097
:10103000CF90BF90AF909F908F907F906F905F9078
:101040004F903F902F9008952F923F924F925F9232
:101050006F927F928F929F92AF92BF92CF92DF92C8
:10106000EF92FF920F931F93CF93DF9300D000D0A6
:10107000CDB7DEB71C016A017B0120910C013091D4
:101080000D013C832B838901243B310534F580918C
:101090000B01882309F47AC081E080930B018B81D6
:1010A0009C8118161906E4F010920B010F900F9016
:1010B0000F900F90DF91CF911F910F91FF90EF90C4
:1010C000DF90CF90BF90AF909F908F907F906F9068
:1010D0005F904F903F902F90089581E080930B0197
:1010E000E0910401F0910501FA83E9830E171F07CF
:1010F00008F4A6C080910201909103010817190716
:1011000008F09EC0000F111F000F111FF801EA5DCB
:10111000FE4F11821082128213822B813C81220D9C
:10112000331D3C832B83243B310524F083EB90E07B
:101130009C838B83EB81FC8129813A81E217F30741
:1011400008F4D8C08091020190910301E817F907D3
:1011500008F0D0C09F01220F331F220F331F2A5DDA
:101160003E4FF901118210821282138264EB70E00B
:1011700086E291E00E947F0C80910C0190910D011C
:10118000019790930D0180930C0190CF0091040181
:10119000109105012017310708F4BDC080910201AC
:1011A000909103012817390708F0B5C0F901EE0F37
:1011B000FF1FEE0FFF1FEA5DFE4F118210821282A9
:1011C00013828B819C81821993099A83898397FD6D
:1011D000FDC0E981FA81E017F10708F499C0809118
:1011E000020190910301E817F90708F091C09F01EF
:1011F000220F331F220F331F2A5D3E4FF901118248
:1012000010821282138264EB70E086E291E00E9409
:101210007F0C20910C0130910D0189010F5F1F4F50
:101220001C830B8310930D0100930C011016110603
:101230000CF03ACF80910B01882309F435CF50CFC1
:1012400080900601912CA12CB12C2F2D33274427FF
:101250005527C501B4010E94CD0D2FEF30E040E0CD
:1012600050E00E94DD0D722E662455244424AC2DDE
:10127000B0E0A50194010E94140E2FEF30E040E091
:1012800050E00E94DD0D422A532A642A752AAE2DB1
:10129000B0E0A50194010E94140E2FEF30E040E071
:1012A00050E00E94DD0DD90199278827482A592A44
:1012B0006A2A7B2AAD2DB0E0A50194010E94140E8C
:1012C0002FEF30E040E050E00E94DD0DB42FA32F5F
:1012D000922F8827482A592A6A2A7B2A000F111F31
:1012E000000F111FF801EA5DFE4F71826082528289
:1012F000438213CF8B819C81880F991F880F991F80
:101300008A5D9E4FFC0111821082128213822ECFC1
:1013100029813A816DCF80900601912CA12CB12CAE
:101320002F2D332744275527C501B4010E94CD0D29
:101330002FEF30E040E050E00E94DD0D722E662479
:1013400055244424AC2DB0E0A50194010E94140E54
:101350002FEF30E040E050E00E94DD0D422A532A9A
:10136000642A752AAE2DB0E0A50194010E94140EE6
:101370002FEF30E040E050E00E94DD0DD9019927C9
:101380008827482A592A6A2A7B2AAD2DB0E0A50170
:1013900094010E94140E2FEF30E040E050E00E94D4
:1013A000DD0DB42FA32F922F8827482A592A6A2AA5
:1013B0007B2AEB81FC81EE0FFF1FEE0FFF1FEA5D22
:1013C000FE4F7182608252824382FBCE1A82198262
:1013D00000CF2F923F924F925F926F927F928F92A7
:1013E0009F92AF92BF92CF92DF92EF92FF920F93B4
:1013F0001F93CF93DF93CDB7DEB762970FB6F89404
:10140000DEBF0FBECDBF292F3327442755272983A1
:101410003A834B835C83282F30E040E050E02D83FB
:101420003E834F835887272F30E040E050E02987E4
:101430003A874B875C8746E251E05A8B498B8A0199
:10144000212C312C812C912C54018A949B01AC01CC
:101450003327442755272D873E874F87588B15C044
:10146000F801118210821282138264EB70E086E22E
:1014700091E00E947F0CFFEF2F1A3F0A0C5F1F4F75
:1014800025EB2216310409F460C08091040190918B
:1014900005012816390638F0809102019091030168
:1014A00028163906E8F2C0900601D12CE12CF12C67
:1014B00029813A814B815C81C701B6010E94CD0D23
:1014C000A50194010E94DD0D722E6624552444244A
:1014D0002D853E854F855889C701B6010E94CD0DE7
:1014E000A50194010E94DD0D422A532A642A752A1F
:1014F000A70196016D817E818F8198850E94CD0D17
:10150000A50194010E94DD0DD90199278827482A59
:10151000592A6A2A7B2AA701960169857A858B85D3
:101520009C850E94CD0DA50194010E94DD0DB42F74
:10153000A32F922F8827482A592A6A2A7B2AF80142
:10154000718260825282438290CF00E010E0E9898C
:10155000FA89118210821282138264EB70E086E2B3
:1015600091E00E947F0C0F5F1F4F29893A892C5F01
:101570003F4F3A8B298B053B110549F762960FB611
:10158000F894DEBF0FBECDBFDF91CF911F910F91B9
:10159000FF90EF90DF90CF90BF90AF909F908F9093
:1015A0007F906F905F904F903F902F9008952F9273
:1015B0003F924F925F926F927F928F929F92AF92E3
:1015C000BF92CF92DF92EF92FF920F931F93CF9330
:1015D000DF93CDB7DEB764970FB6F894DEBF0FBECA
:1015E000CDBF1B01161617060CF042C1652F7727D9
:1015F000882799276B837C838D839E83842F90E03B
:10160000A0E0B0E08F839887A987BA87632F70E046
:1016100080E090E06B877C878D879E871A82198295
:10162000DA01C9019927AA27BB278F87988BA98B35
:10163000BA8B812C912C54018A9499819093060144
:10164000A0910401B0910501BC8BAB8B009102010C
:1016500010910301C92ED12CE12CF12C2B813C815E
:101660004D815E81C701B6010E94CD0DA501940197
:101670000E94DD0D722E662455244424A701960194
:101680006F85788989899A890E94CD0DA501940179
:101690000E94DD0D422A532A642A752AA701960169
:1016A0006F81788589859A850E94CD0DA501940169
:1016B0000E94DD0DD90199278827482A592A6A2ACC
:1016C0007B2AA70196016B857C858D859E850E946E
:1016D000CD0DA50194010E94DD0DB42FA32F922FF3
:1016E0008827482A592A6A2A7B2AA301352DE6E24F
:1016F000F1E080E090E009C0118210821282138232
:1017000001963496843B910589F06B897C89861714
:10171000970718F08017910778F35183408332833D
:10172000438201963496843B910579F764EB70E02F
:1017300086E291E00E947F0C8FE99FE00197F1F72C
:1017400000C00000A981BA811196BA83A9832A1624
:101750003B0609F072CF812C912C54018A9420927F
:10176000060160910401709105017A8369830091FB
:10177000020110910301C22CD12CE12CF12C2B8100
:101780003C814D815E81C701B6010E94CD0DA5014E
:1017900094010E94DD0D722E6624552444242F8569
:1017A000388949895A89C701B6010E94CD0DA50122
:1017B00094010E94DD0D422A532A642A752A2F8142
:1017C000388549855A85C701B6010E94CD0DA5010E
:1017D00094010E94DD0DD90199278827482A592AAA
:1017E0006A2A7B2A2B853C854D855E85C701B6011B
:1017F0000E94CD0DA50194010E94DD0DB42FA32FF1
:10180000922F8827482A592A6A2A7B2AA301352D34
:10181000E6E2F1E080E090E009C0118210821282DD
:10182000138201963496843B910589F0A981BA818F
:101830008A179B0718F08017910778F3518340832C
:101840003283438201963496843B910579F764EBA9
:1018500070E086E291E00E947F0C8FE99FE00197A3
:10186000F1F700C0000091E0291A310809F077CFA4
:1018700064960FB6F894DEBF0FBECDBFDF91CF9157
:101880001F910F91FF90EF90DF90CF90BF90AF909E
:101890009F908F907F906F905F904F903F902F9090
:1018A00008951F920F920FB60F9211242F938F93CA
:1018B0009F9380911B0190911C0181362AEE920723
:1018C00070F081E090E090931C0180931B019F9148
:1018D0008F912F910F900FBE0F901F90189501962A
:1018E000F2CF85B5836085BD8BEE87BDEEE6F0E077
:1018F00080818260808384B5826084BD0895660F94
:10190000771F660F771F3D9A28B12F7D38B130625F
:101910004FB7F89461157105B1F0FC01680F791F9C
:10192000819198E038B9000007F487FF28B9880F43
:10193000000007F407F407F428B907F49A9591F723
:10194000E617F70769F74FBF8FE391E00197F1F7CB
:1019500000C0000008951092230181E080932401CB
:101960000E94710C64E270E080E090E00E948B00C5
:101970008FEF0E944F010E9441010E9452010E947C
:101980005E00789424E646EE6FEF8FEF0E945801D8
:1019900060931F0170932001809321019093220195
:1019A00080912401D1E0C4E080932301909108014B
:1019B000992361F080911D018D2780931D01C093B3
:1019C000230110921E011092080184E090910901F8
:1019D000992331F1D0931D01C0932301E0911E01A1
:1019E000E530E0F5EF5FE0931E0110920901809170
:1019F0000A01882309F44DC091E084E010920A01A5
:101A0000911116C00E9441010E94520180911D0156
:101A1000882321F084E080932401C6CF81E0FBCFAE
:101A200090910A01911130C090911D01992351F3B9
:101A3000823009F4B0C008F4A9C0843041F1853087
:101A400009F0A7C020E040E060E08AE00E94580171
:101A50000E9494000E94520185E0DDCF10921E0189
:101A60001092090180910A018111C6CF60911F0176
:101A70007091200180912101909122010E94940097
:101A80000E94520184E0C7CF90911D01B7CFE09131
:101A90001E018E2F90E08B30910508F0BBCFFC012A
:101AA000EC5CFF4F0C94FF0D40911F015091200101
:101AB00060912101709122018AE090E00E948202EF
:101AC00084E0A9CF65E070E085E090E00E94B80571
:101AD00084E0A1CF60911F017091200180912101CC
:101AE000909122010E94E90984E095CF40911F0165
:101AF0005091200160912101709122018AE090E0D3
:101B00000E94740684E087CF20911F01309120014C
:101B100040912101509122016FEF70E08AE090E046
:101B20000E94D70A84E077CF40911F015091200195
:101B300060912101709122018AE090E00E946A0187
:101B400084E069CF65E070E085E090E00E94FC04ED
:101B500084E061CF40911F015091200160912101EB
:101B6000709122018AE090E00E94240884E053CF23
:101B700040911F015091200160912101709122013B
:101B80008AE090E00E94E70384E045CF813009F4C9
:101B900039CF85E040CF82E03ECFDB018F939F932A
:101BA0000E94140EBF91AF91A29F800D911DA39F23
:101BB000900DB29F900D11240895A1E21A2EAA1B38
:101BC000BB1BFD010DC0AA1FBB1FEE1FFF1FA217ED
:101BD000B307E407F50720F0A21BB30BE40BF50BEA
:101BE000661F771F881F991F1A9469F76095709573
:101BF000809590959B01AC01BD01CF010895EE0F3A
:101C0000FF1F0590F491E02D0994A29FB001B39FAE
:101C1000C001A39F700D811D1124911DB29F700DF5
:101C2000811D1124911D08950E94050EA59F900D00
:101C3000B49F900DA49F800D911D11240895F894D8
:021C4000FFCFD4
:081C42000100FFFFFFFFFF009E
:00000001FF
