S0190000534B3638313272676277206472697665722E737265633E
S11300000C943F000C945C000C945C000C945C0019
S11300100C9470000C945C000C945C000C945C00D8
S11300200C945C000C945C000C945C000C945C00DC
S11300300C945C000C945C000C94980D0C945C0083
S11300400C945C000C945C000C945C000C945C00BC
S11300500C945C000C945C000C945C000C945C00AC
S11300600C945C000C945C00980EEB0EE30EDB0E1B
S1130070D30E6C0EC90EC10EBD0EB50EAD0E1124FD
S11300801FBECFEFD8E0DEBFCDBF11E0A0E0B1E0EE
S1130090EAEAFEE102C005900D92A830B107D9F753
S11300A023E0A8E0B1E001C01D92AA3FB207E1F746
S11300B00E94F20D0C94530F0C940000259A87B102
S11300C0887F87B988B1876088B9E8E6F0E08081E5
S11300D082608083ECE6F0E080818760808308950D
S11300E01F920F920FB60F9211248F93309903C071
S11300F081E080930801319903C081E08093090174
S1130100329903C081E080930A018F910F900FBE52
S11301100F901F90189587B1877E87B9ECE7F0E0C0
S1130120808180648083EAE7F0E08081876E808349
S1130130EBE7F0E0808182608083089590917C00F9
S1130140907F90937C0090917C00892B80937C001D
S113015080917A00806480937A0080917A0086FD91
S1130160FCCF8091780090917900089590930501D7
S113017080930401709303016093020108954F92E8
S11301805F926F927F928F929F92AF92BF92CF9223
S1130190DF92EF92FF920F931F93CF93DF9300D0E0
S11301A000D000D0CDB7DEB769837A838B839C837C
S11301B060910401709105017E836D8300910201B9
S11301C010910301C0900601D12CE12CF12C8981FE
S11301D09A81AB81BC812B2F332744275527C70134
S11301E0B6010E94FA0E412C512C32014A94A3010B
S11301F092010E940A0FB22EAA249924882499817C
S1130200A92FB0E0A70196010E94480FA301920113
S11302100E940A0F822A932AA42AB52A6B81A62F48
S1130220B0E0A70196010E94480FA30192010E9429
S11302300A0FD90199278827882A992AAA2ABB2A2A
S11302407A81A72FB0E0A70196010E94480FA3016D
S113025092010E940A0FB42FA32F922F8827882A75
S1130260992AAA2ABB2A4B2D3A2D292DE6E2F1E040
S113027080E090E009C011821082128213820196FC
S11302803496843B910589F0AD81BE818A179B0722
S113029018F08017910778F3418330832283838297
S11302A001963496843B910579F726960FB6F89417
S11302B0DEBF0FBECDBFDF91CF911F910F91FF9095
S11302C0EF90DF90CF90BF90AF909F908F907F90F2
S11302D06F905F904F900895E6E2F1E080E090E047
S11302E0118210821282138201963496843B910506
S11302F0B9F7089580930601089564EB70E086E2EF
S113030091E00C94C60D8F929F92AF92BF92CF92C0
S1130310DF92EF92FF920F931F93CF93DF93F62F09
S1130320522F9C01AAEFB5E00E94320FDC01CB01F1
S11303309058AF4FBF4F6D01FF24D7FCF094EF2CC2
S113034096018EEFC81681E0D80608F062C0AF2F80
S1130350B0E011962F3F310508F4A2C02EEF822F92
S11303608C198A9F80018B9F100D1124012F112756
S11303708FEF8A9F90018B9F300D1124232F3327F9
S113038080E090E0C42FD0E02196F0956F2F70E0CC
S1130390060F171F260F371FFB01E80FF91FDE0199
S11303A00E94410F4B015C018824AA24BB249F01B5
S11303B00E94410FBB27A92F982F872F7501640135
S11303C0C82AD92AEA2AFB2A9801DE010E94410F91
S11303D0DC01CB018827AA27BB27BA2FA92F982F86
S11303E088278C299D29AE29BF29BA2FA92F982F98
S11303F08827BC01CD01652BDF91CF911F910F910F
S1130400FF90EF90DF90CF90BF90AF909F908F9030
S113041008958CEFC81683E0D806E8F4AF2FB0E057
S113042011968DEFC81682E0D80608F04BC0EFEFA6
S1130430EA9F9001EB9F300D1124232F332762E0B4
S11304406C0D6A9FC0016B9F900D1124892F992711
S113045000E010E097CF8AEFC81685E0D80609F4CB
S113046046C08BEFC81684E0D80608F450C02F2F7E
S113047030E02F5F3F4FEFEFE29F8001E39F100DCD
S11304801124012F1127EAEF9E2F9C19929FB0018E
S1130490939F700D1124872F992720E030E072CFAD
S11304A02FEF2A9F80012B9F100D1124012F11275C
S11304B0CA9E9001CB9E300D1124232F332780E058
S11304C090E060CF2CEF822F8C198A9F90018B9F34
S11304D0300D1124232F33276FEF6A9FC0016B9FC8
S11304E0900D1124892F992700E010E04BCF8F2F16
S11304F090E001962FEF289F8001299F100D112471
S1130500012F112780E090E020E030E03BCF2F2F37
S113051030E02F5F3F4F64E06C0D629F8001639F6A
S1130520100D1124012F11276FEF629FC001639FEB
S1130530900D1124892F992720E030E023CF0F93C9
S11305401F93962F342F422F50E060E070E0532B1E
S1130550692B8A019B01382BC901B8011F910F91A6
S113056008954F925F926F927F928F929F92AF9273
S1130570BF92CF92DF92EF92FF92CF93DF936A0103
S11305807B012091000130910101243B310594F459
S11305904091150150911601443B510504F1820F1D
S11305A0931F909301018093000110921601109201
S11305B0150106C081E090E0909301018093000151
S11305C0DF91CF91FF90EF90DF90CF90BF90AF90ED
S11305D09F908F907F906F905F904F90089580913F
S11305E014018111B6C088279927821B930B30937D
S11305F011012093100121E020931401C0910E01F8
S1130600D0910F01209104013091050197FD0BC099
S1130610FC01EE0FFF1FEE0FFF1FEA5DFE4F11827C
S11306201082128213820196843B91050CF08CC0D7
S11306309093130180931201C217D30758F180914C
S1130640020190910301C817D90720F5FE01EE0FAE
S1130650FF1FEE0FFF1FEA5DFE4F11821082128210
S113066013822196C43BD1050CF486C010920F016D
S113067010920E0164EB70E086E291E00E94C60DD8
S11306808091150190911601019690931601809323
S1130690150196CF80900601912CA12CB12C2F2D01
S11306A0332744275527C501B4010E94FA0E2FEFC2
S11306B030E040E050E00E940A0F722E6624552478
S11306C04424AC2DB0E0A50194010E94480F2FEF03
S11306D030E040E050E00E940A0F422A532A642A84
S11306E0752AAE2DB0E0A50194010E94480F2FEFAA
S11306F030E040E050E00E940A0FD9019927882792
S1130700482A592A6A2A7B2AAD2DB0E0A501940112
S11307100E94480F2FEF30E040E050E00E940A0FA3
S1130720B42FA32F922F8827482A592A6A2A7B2A72
S1130730FE01EE0FFF1FEE0FFF1FEA5DFE4F7182F9
S11307406082528243828DCF109213011092120163
S113075073CF8091100190911101C0910E01D0913D
S11307600F012817390719F08C179D0751F0809154
S113077012019091130146CFD0930F01C0930E0143
S113078079CFCE01821B930B30931101209310017A
S113079039CF2F923F924F925F926F927F928F92B6
S11307A09F92AF92BF92CF92DF92EF92FF920F93FC
S11307B01F93CF93DF93CDB7DEB766970FB6F89448
S11307C0DEBF0FBECDBF9C8B8B8B872F9927AA27AB
S11307D0BB278B839C83AD83BE83862F90E0A0E0F0
S11307E0B0E08F839887A987BA87852F90E0A0E02F
S11307F0B0E08B879C87AD87BE87AFEFBFEFBA832E
S1130800A98322242394312C812C912C54018A9481
S1130810DB01CA019927AA27BB278F87988BA98B4D
S1130820BA8B04EB10E059C089819A81309211018E
S113083020921001A1E0A093140120910E013091A7
S11308400F013E8B2D8B209104013091050197FD02
S11308500BC0FC01EE0FFF1FEE0FFF1FEA5DFE4F02
S113086011821082128213820196843B91050CF04E
S1130870B5C090931301809312018D899E898217CC
S1130880930708F446C0DC018091020190910301B2
S1130890A817B90708F03DC0FD01EE0FFF1FEE0FCA
S11308A0FF1FEA5DFE4F11821082128213822D898E
S11308B03E892F5F3F4F243B31050CF48AC01092D0
S11308C00F0110920E0164EB70E086E291E00E9449
S11308D0C60D0150110909F499C0809114018823AF
S11308E009F4A2CF80911001909111018215930512
S11308F009F479C020910E0130910F013E8B2D8BAC
S11309008217930709F47AC0809112019091130120
S11309109ACFC0900601D12CE12CF12C2B813C8183
S11309204D815E81C701B6010E94FA0EA5019401B2
S11309300E940A0F722E6624552444242F85388978
S113094049895A89C701B6010E94FA0EA50194018A
S11309500E940A0F422A532A642A752AA701960183
S11309606F81788589859A850E94FA0EA501940184
S11309700E940A0FD90199278827482A592A6A2AE6
S11309807B2AA70196016B857C858D859E850E94B7
S1130990FA0EA50194010E940A0FB42FA32F922FDF
S11309A08827482A592A6A2A7B2AED89FE89EE0F6C
S11309B0FF1FEE0FFF1FEA5DFE4F718260825282BD
S11309C043822D893E892F5F3F4F243B31050CF034
S11309D076CF30930F0120930E0175CF109213013F
S11309E0109212014ACF8091120190911301A091AB
S11309F00E01B0910F01BE8BAD8B25CFC9018219B9
S1130A00930930921101209210011DCF8B899C898A
S1130A10280E391EA981BA81A81BB90BBA83A983F0
S1130A20B4EB2B1631040CF4FCCE66960FB6F89496
S1130A30DEBF0FBECDBFDF91CF911F910F91FF900D
S1130A40EF90DF90CF90BF90AF909F908F907F906A
S1130A506F905F904F903F902F9008954F925F92C8
S1130A606F927F928F929F92AF92BF92CF92DF92BA
S1130A70EF92FF92CF93DF9300D000D000D0CDB798
S1130A80DEB749835A836B837C832091140121113F
S1130A90CDC022273327281B390B90931101809353
S1130AA0100181E08093140140910E0150910F01D7
S1130AB05E834D83809104019091050137FD0BC045
S1130AC0F901EE0FFF1FEE0FFF1FEA5DFE4F1182CB
S1130AD01082128213822F5F3F4F243B31050CF0AA
S1130AE0A0C030931301209312012D813E81281759
S1130AF0390798F080910201909103012817390772
S1130B0060F4F901EE0FFF1FEE0FFF1FEA5DFE4FC9
S1130B1011821082128213825DC0C0900601D12C12
S1130B20E12CF12C89819A81AB81BC812B2F332755
S1130B3044275527C701B6010E94FA0E412C512CB7
S1130B4032014A94A30192010E940A0FB22EAA24F0
S1130B50992488249981A92FB0E0A70196010E94C5
S1130B60480FA30192010E940A0F822A932AA42A01
S1130B70B52A2B81A22FB0E0A70196010E94480F4D
S1130B80A30192010E940A0FD90199278827882A74
S1130B90992AAA2ABB2A3A81A32FB0E0A701960179
S1130BA00E94480FA30192010E940A0FB42FA32FA1
S1130BB0922F8827882A992AAA2ABB2AED81FE81A6
S1130BC0EE0FFF1FEE0FFF1FEA5DFE4FB182A08202
S1130BD0928283824D815E814F5F5F4F5A83498346
S1130BE0443B5105C4F110920F0110920E0164EBC5
S1130BF070E086E291E026960FB6F894DEBF0FBE51
S1130C00CDBFDF91CF91FF90EF90DF90CF90BF9059
S1130C10AF909F908F907F906F905F904F900C94C7
S1130C20C60D10921301109212015FCF2091100192
S1130C30309111018217930799F0A0910E01B091A0
S1130C400F01BE83AD832A173B07A9F0209112013F
S1130C50309113012FCF50930F0140930E01C7CF52
S1130C6080910E0190910F019E838D83209112013A
S1130C70309113011FCF9D01281B390B9093110153
S1130C808093100117CFFC018091190190911A01F2
S1130C909B01280F391F30931A0120931901AAEFE1
S1130CA0B5E00E94320FDC01CB019058AF4FBF4F2B
S1130CB0CD01BB2797FDB095AB2F8E3F41E0940744
S1130CC048F58F3F910508F45AC02EEF422F481B78
S1130CD050E060E070E0742F6627552744276F6F5B
S1130CE08091000190910101843B910564F520916C
S1130CF0150130911601243B31050CF469C08E0FA7
S1130D009F1F90930101809300011092160110928D
S1130D10150108958C3F43E09407E0F48D3F42E0D1
S1130D209407F0F542E0480F50E060E070E05F6F38
S1130D30762F652F542F4427809100019091010153
S1130D40843B9105A4F281E090E0909301018093AB
S1130D50000108958A3F45E09407A9F18B3F44E0E0
S1130D60940708F441C02AEF422F481B50E060E08A
S1130D7070E06F6F762F652F542F4427B1CF482F23
S1130D8050E060E070E0762F652F542F442744270D
S1130D90662777276F6F762F652F542F4427A0CFB0
S1130DA02CEF422F481B50E060E070E0762F652F57
S1130DB0542F44274427662777274F6F762F652FB4
S1130DC0542F44278DCF40E050E060E07FEF88CF80
S1130DD00E942E0580911501909116010196909321
S1130DE0160180931501089544E0480F50E060E037
S1130DF070E0742F6627552744275F6F71CFFC017D
S1130E0080911701909118019B01280F391F30938D
S1130E10180120931701AAEFB5E00E94320FDC01FC
S1130E20CB019058AF4FBF4FCD01BB2797FDB09575
S1130E30AB2F8E3F41E0940748F58F3F910508F4AE
S1130E405AC02EEF422F481B50E060E070E0742F30
S1130E506627552744276F6F809100019091010107
S1130E60843B910564F52091150130911601243BD2
S1130E7031050CF469C08E0F9F1F9093010180937C
S1130E800001109216011092150108958C3F43E061
S1130E909407E0F48D3F42E09407F0F542E0480FF8
S1130EA050E060E070E05F6F762F652F542F442789
S1130EB08091000190910101843B9105A4F281E0AD
S1130EC090E0909301018093000108958A3F45E0EA
S1130ED09407A9F18B3F44E0940708F441C02AEF3A
S1130EE0422F481B50E060E070E06F6F762F652F53
S1130EF0542F4427B1CF482F50E060E070E0762FA4
S1130F00652F542F44274427662777276F6F762F42
S1130F10652F542F4427A0CF2CEF422F481B50E0BD
S1130F2060E070E0762F652F542F4427442766270E
S1130F3077274F6F762F652F542F44278DCF40E0AE
S1130F4050E060E07FEF88CF0E942E05809115016C
S1130F5090911601019690931601809315010895BE
S1130F6044E0480F50E060E070E0742F6627552796
S1130F7044275F6F71CF2F923F924F925F926F928F
S1130F807F928F929F92AF92BF92CF92DF92EF9215
S1130F90FF920F931F93CF93DF93CDB7DEB768977C
S1130FA00FB6F894DEBF0FBECDBF9A8389834F87F7
S1130FB0588B698B7A8B872F9927AA27BB278B831A
S1130FC09C83AD83BE839989892F90E0A0E0B0E033
S1130FD08F839887A987BA879889892F90E0A0E0A2
S1130FE0B0E08B879C87AD87BE87A6E2B1E0B88F5F
S1130FF0AF8B212C312C812C912C54018A94DB0150
S1131000CA019927AA27BB278B8B9C8BAD8BBE8BE0
S11310102BC0EF89F88D1182108212821382C101D4
S113102029813A81821B930B97FD8AC0880F991FEF
S1131030880F991FFC01EA5DFE4F11821082128213
S1131040138264EB70E086E291E00E94C60D3FEFEC
S1131050231A330A8F89988D0496988F8F8B94EB7B
S11310602916310409F46FC000910401109105019F
S11310702016310638F08091020190910301281660
S1131080390638F2C0900601D12CE12CF12C2B81C9
S11310903C814D815E81C701B6010E94FA0EA50113
S11310A094010E940A0F722E6624552444242B892D
S11310B03C894D895E89C701B6010E94FA0EA501DB
S11310C094010E940A0F422A532A642A752AA7010E
S11310D096016F81788589859A850E94FA0EA5010B
S11310E094010E940A0FD90199278827482A592A6E
S11310F06A2A7B2AA70196016B857C858D859E854E
S11311000E94FA0EA50194010E940A0FB42FA32F86
S1131110922F8827482A592A6A2A7B2AAF89B88DB0
S113112011967C9211976C9212965C921297139678
S11311304C92C10129813A81821B930B97FF76CF90
S113114080E090E073CFF2EF2F2EF3E03F2EA3EB7D
S1131150B0E0BC8BAB8B812C912C54018A948F858D
S11311609889A989BA899927AA27BB278F87988B39
S1131170A98BBA8B34C0D10111961C9211971C9281
S113118012961C92129713961C9289819A81EB896C
S1131190FC898E0F9F1F843B910514F083EB90E034
S11311A0880F991F880F991FFC01EA5DFE4F118279
S11311B010821282138264EB70E086E291E00E9456
S11311C0C60D2B893C89215031093C8B2B8B34E093
S11311D0231A31088B899C89019609F463C0009114
S11311E0040110910501AB89BC89A017B10740F037
S11311F08091020190910301A817B90708F4BBCFAD
S1131200C0900601D12CE12CF12C2B813C814D8125
S11312105E81C701B6010E94FA0EA50194010E94E5
S11312200A0F722E6624552444242F85388949894F
S11312305A89C701B6010E94FA0EA50194010E94C1
S11312400A0F422A532A642A752A2F813885498530
S11312505A85C701B6010E94FA0EA50194010E94A5
S11312600A0FD90199278827482A592A6A2A7B2AEA
S11312702B853C854D855E85C701B6010E94FA0E1B
S1131280A50194010E940A0FB42FA32F922F88273F
S1131290482A592A6A2A7B2AF10171826082528281
S11312A0438273CF68960FB6F894DEBF0FBECDBFEE
S11312B0DF91CF911F910F91FF90EF90DF90CF902E
S11312C0BF90AF909F908F907F906F905F904F9062
S11312D03F902F9008952F923F924F925F926F927A
S11312E07F928F929F92AF92BF92CF92DF92EF92B2
S11312F0FF920F931F93CF93DF9300D000D0CDB70D
S1131300DEB71C016A017B0120910C0130910D01B3
S11313103C832B838901243B310534F580910B01F7
S1131320882309F47AC081E080930B018B819C812E
S113133018161906E4F010920B010F900F900F90FD
S11313400F90DF91CF911F910F91FF90EF90DF905D
S1131350CF90BF90AF909F908F907F906F905F9051
S11313604F903F902F90089581E080930B01E0917E
S11313700401F0910501FA83E9830E171F0708F4AD
S1131380A6C080910201909103010817190708F083
S11313909EC0000F111F000F111FF801EA5DFE4FE0
S11313A011821082128213822B813C81220D331D03
S11313B03C832B83243B310524F083EB90E09C8316
S11313C08B83EB81FC8129813A81E217F30708F4CE
S11313D0D8C08091020190910301E817F90708F041
S11313E0D0C09F01220F331F220F331F2A5D3E4FAF
S11313F0F901118210821282138264EB70E086E29A
S113140091E00E94C60D80910C0190910D0101970D
S113141090930D0180930C0190CF009104011091E1
S113142005012017310708F4BDC080910201909195
S113143003012817390708F0B5C0F901EE0FFF1FA3
S1131440EE0FFF1FEA5DFE4F11821082128213829B
S11314508B819C81821993099A83898397FDFDC0AE
S1131460E981FA81E017F10708F499C0809102013B
S113147090910301E817F90708F091C09F01220F2A
S1131480331F220F331F2A5D3E4FF9011182108250
S11314901282138264EB70E086E291E00E94C60D32
S11314A020910C0130910D0189010F5F1F4F1C83A6
S11314B00B8310930D0100930C01101611060CF010
S11314C03ACF80910B01882309F435CF50CF809017
S11314D00601912CA12CB12C2F2D332744275527FD
S11314E0C501B4010E94FA0E2FEF30E040E050E055
S11314F00E940A0F722E662455244424AC2DB0E0B9
S1131500A50194010E94480F2FEF30E040E050E025
S11315100E940A0F422A532A642A752AAE2DB0E08B
S1131520A50194010E94480F2FEF30E040E050E005
S11315300E940A0FD90199278827482A592A6A2A1A
S11315407B2AAD2DB0E0A50194010E94480F2FEF36
S113155030E040E050E00E940A0FB42FA32F922FF6
S11315608827482A592A6A2A7B2A000F111F000F4C
S1131570111FF801EA5DFE4F71826082528243823C
S113158013CF8B819C81880F991F880F991F8A5DC7
S11315909E4FFC0111821082128213822ECF298168
S11315A03A816DCF80900601912CA12CB12C2F2D66
S11315B0332744275527C501B4010E94FA0E2FEFA3
S11315C030E040E050E00E940A0F722E6624552459
S11315D04424AC2DB0E0A50194010E94480F2FEFE4
S11315E030E040E050E00E940A0F422A532A642A65
S11315F0752AAE2DB0E0A50194010E94480F2FEF8B
S113160030E040E050E00E940A0FD9019927882772
S1131610482A592A6A2A7B2AAD2DB0E0A5019401F3
S11316200E94480F2FEF30E040E050E00E940A0F84
S1131630B42FA32F922F8827482A592A6A2A7B2A53
S1131640EB81FC81EE0FFF1FEE0FFF1FEA5DFE4FE3
S11316507182608252824382FBCE1A82198200CF49
S11316602F923F924F925F926F927F928F929F92AE
S1131670AF92BF92CF92DF92EF92FF920F931F939C
S1131680CF93DF93CDB7DEB762970FB6F894DEBF82
S11316900FBECDBF292F33274427552729833A83EB
S11316A04B835C83282F30E040E050E02D833E8361
S11316B04F835887272F30E040E050E029873A874E
S11316C04B875C8746E251E05A8B498B8A01212C77
S11316D0312C812C912C54018A949B01AC01332729
S11316E0442755272D873E874F87588B15C0F8010F
S11316F0118210821282138264EB70E086E291E020
S11317000E94C60DFFEF2F1A3F0A0C5F1F4F25EBF7
S11317102216310409F460C08091040190910501FE
S11317202816390638F08091020190910301281699
S11317303906E8F2C0900601D12CE12CF12C298164
S11317403A814B815C81C701B6010E94FA0EA50162
S113175094010E940A0F722E6624552444242D8578
S11317603E854F855889C701B6010E94FA0EA5012E
S113177094010E940A0F422A532A642A752AA70157
S113178096016D817E818F8198850E94FA0EA50154
S113179094010E940A0FD90199278827482A592AB7
S11317A06A2A7B2AA701960169857A858B859C859F
S11317B00E94FA0EA50194010E940A0FB42FA32FD0
S11317C0922F8827482A592A6A2A7B2AF80171828B
S11317D060825282438290CF00E010E0E989FA8966
S11317E0118210821282138264EB70E086E291E02F
S11317F00E94C60D0F5F1F4F29893A892C5F3F4F06
S11318003A8B298B053B110549F762960FB6F8947C
S1131810DEBF0FBECDBFDF91CF911F910F91FF901F
S1131820EF90DF90CF90BF90AF909F908F907F907C
S11318306F905F904F903F902F9008952F923F921A
S11318404F925F926F927F928F929F92AF92BF92CC
S1131850CF92DF92EF92FF920F931F93CF93DF9378
S1131860CDB7DEB764970FB6F894DEBF0FBECDBF19
S11318701B01161617060CF042C1652F772788271F
S113188099276B837C838D839E83842F90E0A0E0D3
S1131890B0E08F839887A987BA87632F70E080E0D0
S11318A090E06B877C878D879E871A821982DA0184
S11318B0C9019927AA27BB278F87988BA98BBA8B35
S11318C0812C912C54018A94998190930601A091C2
S11318D00401B0910501BC8BAB8B00910201109106
S11318E00301C92ED12CE12CF12C2B813C814D819B
S11318F05E81C701B6010E94FA0EA50194010E94FF
S11319000A0F722E662455244424A70196016F857C
S1131910788989899A890E94FA0EA50194010E9406
S11319200A0F422A532A642A752AA70196016F8155
S1131930788589859A850E94FA0EA50194010E94F2
S11319400A0FD90199278827482A592A6A2A7B2A03
S1131950A70196016B857C858D859E850E94FA0E74
S1131960A50194010E940A0FB42FA32F922F882758
S1131970482A592A6A2A7B2AA301352DE6E2F1E096
S113198080E090E009C011821082128213820196D5
S11319903496843B910589F06B897C898617970777
S11319A018F08017910778F3518340833283438280
S11319B001963496843B910579F764EB70E086E2F6
S11319C091E00E94C60D8FE99FE00197F1F700C0F6
S11319D00000A981BA811196BA83A9832A163B060D
S11319E009F072CF812C912C54018A942092060123
S11319F060910401709105017A8369830091020169
S1131A0010910301C22CD12CE12CF12C2B813C81AF
S1131A104D815E81C701B6010E94FA0EA5019401B1
S1131A200E940A0F722E6624552444242F85388977
S1131A3049895A89C701B6010E94FA0EA501940189
S1131A400E940A0F422A532A642A752A2F81388554
S1131A5049855A85C701B6010E94FA0EA501940171
S1131A600E940A0FD90199278827482A592A6A2AE5
S1131A707B2A2B853C854D855E85C701B6010E9476
S1131A80FA0EA50194010E940A0FB42FA32F922FDE
S1131A908827482A592A6A2A7B2AA301352DE6E297
S1131AA0F1E080E090E009C011821082128213827A
S1131AB001963496843B910589F0A981BA818A17ED
S1131AC09B0718F08017910778F351834083328382
S1131AD0438201963496843B910579F764EB70E078
S1131AE086E291E00E94C60D8FE99FE00197F1F72D
S1131AF000C0000091E0291A310809F077CF6496FC
S1131B000FB6F894DEBF0FBECDBFDF91CF911F910A
S1131B100F91FF90EF90DF90CF90BF90AF909F9088
S1131B208F907F906F905F904F903F902F9008958B
S1131B301F920F920FB60F9211242F938F939F939E
S1131B4080911B0190911C0181362AEE920770F05E
S1131B5081E090E090931C0180931B019F918F91F1
S1131B602F910F900FBE0F901F9018950196F2CFF2
S1131B7085B5836085BD8BEE87BDEEE6F0E08081A0
S1131B808260808384B5826084BD0895660F771F68
S1131B90660F771F3D9A28B12F7D38B130624FB759
S1131BA0F89461157105B1F0FC01680F791F8191FA
S1131BB098E038B9000007F487FF28B9880F0000BF
S1131BC007F407F407F428B907F49A9591F7E61790
S1131BD0F70769F74FBF8FE391E00197F1F700C072
S1131BE0000008951092230181E0809324010E9453
S1131BF0B80D64E270E080E090E00E94B6008FEFE0
S1131C000E947A010E946C010E947D010E945E0084
S1131C100E948B00789424E646EE6FEF8FEF0E94CB
S1131C209F0260931F017093200180932101909380
S1131C302201D1E0C4E083E00E949E0020E04FEF47
S1131C406FEF00249695879507949695879507944A
S1131C50982F802D0E94830160931F0170932001AF
S1131C608093210190932201209124012093230148
S1131C7030910801332361F020911D012D27209319
S1131C801D01C093230110921E011092080124E04B
S1131C9030910901332331F1D0931D01C093230105
S1131CA0E0911E01E530E0F5EF5FE0931E01109234
S1131CB0090120910A01222309F445C031E024E0FE
S1131CC010920A01311116C00E946C010E947D011C
S1131CD080911D01882321F084E080932401ABCFFF
S1131CE081E0FBCF30910A01311128C030911D01F0
S1131CF0332351F3223009F47BC008F474C0243038
S1131D0001F1253009F072C020E040E060E08AE093
S1131D100E949F020E94BF000E947D0185E0DDCFEA
S1131D2010921E011092090120910A012111C6CFBF
S1131D300E94BF000E947D0184E0CFCF30911D013D
S1131D40BFCFE0911E010E2F10E00B30110520F6DD
S1131D50F801EC5CFF4F0C942C0FAB01BC018AE042
S1131D6090E00E94C90384E0B8CF65E070E085E0AC
S1131D7090E00E94FF0684E0B0CF0E94300B84E024
S1131D80ACCFAB01BC018AE090E00E94BB0784E0C9
S1131D90A4CF9B01AC016FEF70E08AE090E00E9459
S1131DA01E0C84E09ACFAB01BC018AE090E00E9453
S1131DB0B10284E092CF62E370E085E090E00E949B
S1131DC0430684E08ACFAB01BC0186E490E00E9424
S1131DD06B0984E082CFAB01BC018AE090E00E94F1
S1131DE02E0584E07ACF213009F46ECF85E075CFDB
S1131DF082E073CFDB018F939F930E94480FBF91C2
S1131E00AF91A29F800D911DA39F900DB29F900D45
S1131E1011240895A1E21A2EAA1BBB1BFD010DC0BB
S1131E20AA1FBB1FEE1FFF1FA217B307E407F50786
S1131E3020F0A21BB30BE40BF50B661F771F881F62
S1131E40991F1A9469F760957095809590959B01F8
S1131E50AC01BD01CF010895EE0FFF1F0590F49171
S1131E60E02D0994A29FB001B39FC001A39F700D00
S1131E70811D1124911DB29F700D811D1124911D8E
S1131E8008950E94320FB7FF0895821B930B0895A3
S1131E900E94320FA59F900DB49F900DA49F800DBA
S10D1EA0911D11240895F894FFCF5A
S10B1EAA0100FFFFFFFFFF0030
S9030000FC
