S0160000526F6F6D4175746F6D6174696F6E2E7372656350
S11300000C9434000C9451000C9451000C94510045
S11300100C9451000C9451000C9451000C94510018
S11300200C9451000C9451000C9451000C94510008
S11300300C9451000C9451000C9451000C945100F8
S11300400C9451000C9451000C9469000C945100D0
S11300500C9451000C9451000C9451000C945100D8
S11300600C9451000C94510011241FBECFEFD8E022
S1130070DEBFCDBF11E0A0E0B1E0ECE9F2E002C0E8
S113008005900D92A031B107D9F721E0A0E1B1E0CC
S113009001C01D92A432B207E1F70E9493000C94B0
S11300A04C010C94000087B18F7C87B9ECE7F0E039
S11300B0808180648083EAE7F0E08081876E8083BA
S11300C0EBE7F0E08081826080830895FC01118277
S11300D008951F920F920FB60F9211242F933F93FE
S11300E04F935F936F937F938F939F93AF93BF933C
S11300F0EF93FF9380E191E00E94F70080E191E0AB
S11301000E946600FF91EF91BF91AF919F918F91F3
S11301107F916F915F914F913F912F910F900FBEFF
S11301200F901F901895CF93DF9300D000D000D08C
S1130130CDB7DEB71A8219821B821C821D821E82F1
S11301400E94530060E875E280E090E00E94AE00F7
S1130150789480E091E00E941401FFCFCF93DF9365
S1130160C1ECD0E0288128612883E2ECF0E0208112
S113017027602083DC01CB01880F991FAA1FBB1FB6
S1130180880F991FAA1FBB1F9C01AD01220F331FAB
S1130190441F551F220F331F441F551F60E074E294
S11301A084EF90E00E942A018FEF820F8093C400B5
S11301B0DA01C9010197A109B109892F9A2FAB2F3F
S11301C0BB278093C500888180688883DF91CF91A5
S11301D008958091C0008823E4F78091C6000895B3
S11301E09091C00095FFFCCF8093C6000895EF92D4
S11301F0FF920F931F93CF937C0190E0C1E0C90F4E
S11302008701090F111D0E94E900F80180839C2FCA
S11302108A30A1F7F701EC0FF11D1082CF911F91E5
S11302200F91FF90EF9008950F931F93CF93DF9357
S11302308C01C0E0D0E003C021960E94F000F801D8
S1130240EC0FFD1F80818111F7CFDF91CF911F91BA
S11302500F910895A1E21A2EAA1BBB1BFD010DC02C
S1130260AA1FBB1FEE1FFF1FA217B307E407F50762
S113027020F0A21BB30BE40BF50B661F771F881F3E
S1130280991F1A9469F760957095809590959B01D4
S10F0290AC01BD01CF010895F894FFCF2C
S113029C626F6F74207375636365737366756C003A
S9030000FC
