:100000000C9434000C9446000C9446000C9446006A
:100010000C9446000C9446000C9446000C94460048
:100020000C9446000C9446000C9446000C94460038
:100030000C9446000C9446000C9446000C94460028
:100040000C9446000C9446000C947F000C944600DF
:100050000C9446000C9446000C9446000C94460008
:100060000C9446000C94460011241FBECFEFD8E03C
:10007000DEBFCDBF21E0A0E0B1E001C01D92A43100
:10008000B207E1F70E94AB000C9495040C940000B9
:1000900087B18F7C87B9ECE7F0E080818064808352
:1000A000EAE7F0E08081876E8083EBE7F0E0808113
:1000B0008260808308950F931F93ECE7F0E08081C6
:1000C000807F8083808184608083EAE7F0E08081A4
:1000D0008064808380917A0086FDFCCF80917800D7
:1000E000909179000FEF10E020E030E04FEF53E007
:1000F00060E070E00E94D3001F910F9108951F925D
:100100000F920FB60F9211242F933F934F935F934B
:100110006F937F938F939F93AF93BF93EF93FF93CF
:1001200080E091E00E94AD0180E091E00E94180221
:1001300010920001FF91EF91BF91AF919F918F912C
:100140007F916F915F914F913F912F910F900FBED3
:100150000F901F901895CF93DF9300D000D000D060
:10016000CDB7DEB71A8219821B821C821D821E82C5
:100170000E94480060E875E280E090E00E9464011F
:1001800078940E945B009A83898389819A810E9476
:10019000CA012FEF89E698E1215080409040E1F7B5
:1001A00000C00000EECF2F923F924F925F926F926D
:1001B0007F928F929F92AF92BF92CF92DF92EF92F7
:1001C000FF920F931F93CF93DF9300D000D000D006
:1001D000CDB7DEB79E838D837B016A011901481775
:1001E000590714F45E834D832D813E812E153F0502
:1001F00014F4FE82ED82B80162197309072E000C17
:10020000880B990B0E94450369837A838B839C83B7
:100210002D813E81B901330F880B990B0E94450354
:100220002B013C01B701FF0C880B990B0E94450381
:100230004B015C019B01AC01C301B2010E942E0283
:100240002B013C01B601DD0C880B990B0E94450384
:10025000A50194010E942E029B01AC01C301B201D1
:100260000E949B029B01AC0169817A818B819C81F8
:100270000E94D1036B017C01B101330C880B990BF7
:100280000E9445039B01AC01C701B6010E942F02E9
:100290000E940D03CB0126960FB6F894DEBF0FBE69
:1002A000CDBFDF91CF911F910F91FF90EF90DF9025
:1002B000CF90BF90AF909F908F907F906F905F9006
:1002C0004F903F902F900895CF93DF93C1ECD0E0F3
:1002D000288128612883E2ECF0E0208127602083D8
:1002E000DC01CB01880F991FAA1FBB1F880F991F24
:1002F000AA1FBB1F9C01AD01220F331F441F551FB6
:10030000220F331F441F551F60E074E284EF90E01A
:100310000E943E048FEF820F8093C400DA01C9016E
:100320000197A109B109892F9A2FAB2FBB27809381
:10033000C500888180688883DF91CF91089580917E
:10034000C0008823E4F78091C60008959091C00012
:1003500095FFFCCF8093C6000895EF92FF920F9314
:100360001F93CF937C0190E0C1E0C90F8701090F73
:10037000111D0E949F01F80180839C2F8A30A1F7F4
:10038000F701EC0FF11D1082CF911F910F91FF909B
:10039000EF9008950F931F93CF93DF93CDB7DEB700
:1003A00064970FB6F894DEBF0FBECDBF4AE0BE0122
:1003B0006F5F7F4F90E00E94600420E030E001C05A
:1003C0009C01C9010196E1E0F0E0EC0FFD1FE80F90
:1003D000F91F40814111F4CFE1E0F0E0EC0FFD1F87
:1003E000E80FF91F4AE040832E5F3F4FE1E0F0E065
:1003F000EC0FFD1FE20FF31F108200E010E004C0BD
:100400000F5F1F4F0E94A601E1E0F0E0EC0FFD1F1F
:10041000E00FF11F80818111F3CF64960FB6F8943D
:10042000DEBF0FBECDBFDF91CF911F910F91089519
:100430000F931F93CF93DF938C01C0E0D0E003C0F4
:1004400021960E94A601F801EC0FFD1F8081811109
:10045000F7CFDF91CF911F910F9108955058BB278F
:10046000AA270E9446020C9497030E94890338F041
:100470000E94900320F039F49F3F19F426F40C9465
:1004800086030EF4E095E7FB0C948003E92F0E94AD
:10049000A80358F3BA17620773078407950720F07B
:1004A00079F4A6F50C94CA030EF4E0950B2EBA2F3E
:1004B000A02D0B01B90190010C01CA01A00111246A
:1004C000FF27591B99F0593F50F4503E68F11A1616
:1004D000F040A22F232F342F4427585FF3CF4695A7
:1004E00037952795A795F0405395C9F77EF41F16C9
:1004F000BA0B620B730B840BBAF09150A1F0FF0F93
:10050000BB1F661F771F881FC2F70EC0BA0F621F7E
:10051000731F841F48F4879577956795B795F7956E
:100520009E3F08F0B0CF9395880F08F09927EE0F03
:100530009795879508950E94AF020C9497030E94A7
:10054000900358F00E94890340F029F45F3F29F09E
:100550000C94800351110C94CB030C9486030E94DD
:10056000A80368F39923B1F3552391F3951B550B19
:10057000BB27AA2762177307840738F09F5F5F4F76
:10058000220F331F441FAA1FA9F335D00E2E3AF0B5
:10059000E0E832D091505040E695001CCAF72BD0CD
:1005A000FE2F29D0660F771F881FBB1F261737071E
:1005B0004807AB07B0E809F0BB0B802DBF01FF2750
:1005C00093585F4F3AF09E3F510578F00C948003AA
:1005D0000C94CB035F3FE4F3983ED4F38695779574
:1005E0006795B795F7959F5FC9F7880F911D969509
:1005F000879597F90895E1E0660F771F881FBB1F65
:10060000621773078407BA0720F0621B730B840B11
:10061000BA0BEE1F88F7E09508950E9414036894C2
:10062000B1110C94CB0308950E94B00388F09F573A
:1006300098F0B92F9927B751B0F0E1F0660F771F06
:10064000881F991F1AF0BA95C9F714C0B13091F0FC
:100650000E94CA03B1E008950C94CA03672F782F53
:100660008827B85F39F0B93FCCF3869577956795C1
:10067000B395D9F73EF490958095709561957F4F2D
:100680008F4F9F4F0895E89409C097FB3EF49095D3
:100690008095709561957F4F8F4F9F4F9923A9F05B
:1006A000F92F96E9BB279395F695879577956795EA
:1006B000B795F111F8CFFAF4BB0F11F460FF1BC02E
:1006C0006F5F7F4F8F4F9F4F16C0882311F096E9C1
:1006D00011C0772321F09EE8872F762F05C066236F
:1006E00071F096E8862F70E060E02AF09A95660F28
:1006F000771F881FDAF7880F9695879597F90895E1
:1007000097F99F6780E870E060E008959FEF80ECC4
:10071000089500240A941616170618060906089567
:1007200000240A9412161306140605060895092ECD
:100730000394000C11F4882352F0BB0F40F4BF2B3C
:1007400011F460FF04C06F5F7F4F8F4F9F4F08957C
:1007500057FD9058440F551F59F05F3F71F0479572
:10076000880F97FB991F61F09F3F79F08795089557
:10077000121613061406551FF2CF4695F1DF08C076
:10078000161617061806991FF1CF86957105610593
:1007900008940895E894BB2766277727CB0197F93B
:1007A00008950E94E4030C9497030E94890338F093
:1007B0000E94900320F0952311F00C9480030C9478
:1007C000860311240C94CB030E94A80370F3959F19
:1007D000C1F3950F50E0551F629FF001729FBB2738
:1007E000F00DB11D639FAA27F00DB11DAA1F649FD4
:1007F0006627B00DA11D661F829F2227B00DA11D87
:10080000621F739FB00DA11D621F839FA00D611D0C
:10081000221F749F3327A00D611D231F849F600D2D
:10082000211D822F762F6A2F11249F5750409AF056
:10083000F1F088234AF0EE0FFF1FBB1F661F771FE2
:10084000881F91505040A9F79E3F510580F00C94AD
:1008500080030C94CB035F3FE4F3983ED4F386957A
:1008600077956795B795F795E7959F5FC1F7FE2B4D
:10087000880F911D9695879597F90895A1E21A2EF4
:10088000AA1BBB1BFD010DC0AA1FBB1FEE1FFF1F34
:10089000A217B307E407F50720F0A21BB30BE40B84
:1008A000F50B661F771F881F991F1A9469F76095CB
:1008B0007095809590959B01AC01BD01CF01089585
:1008C000BB274A3031F4992322F4BDE290958195FB
:1008D0009F4F0C946C04BB27FB015527AA27880F58
:1008E000991FAA1FA41710F0A41B83955051B9F7A4
:1008F000A05DAA3308F0A95DA193009779F7B11123
:10090000B1931192CB010C948504DC01FC01672F9B
:1009100071917723E1F7329704C07C916D937083D6
:0E0920006291AE17BF07C8F30895F894FFCF99
:00000001FF
