:100000000C9434000C943E000C943E000C943E0082
:100010000C943E000C943E000C943E000C943E0068
:100020000C943E000C943E000C943E000C943E0058
:100030000C943E000C943E000C943E000C943E0048
:100040000C943E000C943E000C943E000C943E0038
:100050000C943E000C943E000C943E000C943E0028
:100060000C943E000C943E0011241FBECFEFD8E04C
:10007000DEBFCDBF0E9477000C942C030C940000CF
:1000800087B18F7C87B9ECE7F0E080818064808362
:10009000EAE7F0E08081876E8083EBE7F0E0808123
:1000A0008260808308950F931F93ECE7F0E08081D6
:1000B000807F8083808184608083EAE7F0E08081B4
:1000C0008064808380917A0086FDFCCF80917800E7
:1000D000909179000FEF10E020E030E04FEF53E017
:1000E00060E070E00E948B001F910F910895CF9304
:1000F000DF9300D000D000D0CDB7DEB71A821982CE
:100100001B821C821D821E820E9440000E9453009E
:100110009A838983FBCF2F923F924F925F926F9287
:100120007F928F929F92AF92BF92CF92DF92EF9287
:10013000FF920F931F93CF93DF9300D000D000D096
:10014000CDB7DEB79E838D837B016A011901481705
:10015000590714F45E834D832D813E812E153F0592
:1001600014F4FE82ED82B80162197309072E000CA7
:10017000880B990B0E94330269837A838B839C835B
:100180002D813E81B901330F880B990B0E943302F8
:100190002B013C01B701FF0C880B990B0E94330225
:1001A0004B015C019B01AC01C301B2010E941C0127
:1001B0002B013C01B601DD0C880B990B0E94330228
:1001C000A50194010E941C019B01AC01C301B20175
:1001D0000E9489019B01AC0169817A818B819C819C
:1001E0000E94BF026B017C01B101330C880B990B9B
:1001F0000E9433029B01AC01C701B6010E941D01A0
:100200000E94FB01CB0126960FB6F894DEBF0FBE0D
:10021000CDBFDF91CF911F910F91FF90EF90DF90B5
:10022000CF90BF90AF909F908F907F906F905F9096
:100230004F903F902F9008955058BB27AA270E94B7
:1002400034010C9485020E94770238F00E947E02ED
:1002500020F039F49F3F19F426F40C9474020EF444
:10026000E095E7FB0C946E02E92F0E94960258F38A
:10027000BA17620773078407950720F079F4A6F58B
:100280000C94B8020EF4E0950B2EBA2FA02D0B01A2
:10029000B90190010C01CA01A0011124FF27591BCB
:1002A00099F0593F50F4503E68F11A16F040A22FD1
:1002B000232F342F4427585FF3CF46953795279542
:1002C000A795F0405395C9F77EF41F16BA0B620B41
:1002D000730B840BBAF09150A1F0FF0FBB1F661F88
:1002E000771F881FC2F70EC0BA0F621F731F841FCB
:1002F00048F4879577956795B795F7959E3F08F0F1
:10030000B0CF9395880F08F09927EE0F97958795B2
:1003100008950E949D010C9485020E947E0258F06F
:100320000E94770240F029F45F3F29F00C946E029E
:1003300051110C94B9020C9474020E94960268F355
:100340009923B1F3552391F3951B550BBB27AA278E
:1003500062177307840738F09F5F5F4F220F331FC8
:10036000441FAA1FA9F335D00E2E3AF0E0E832D090
:1003700091505040E695001CCAF72BD0FE2F29D093
:10038000660F771F881FBB1F261737074807AB0765
:10039000B0E809F0BB0B802DBF01FF2793585F4FDA
:1003A0003AF09E3F510578F00C946E020C94B9021D
:1003B0005F3FE4F3983ED4F3869577956795B795BC
:1003C000F7959F5FC9F7880F911D9695879597F9C7
:1003D0000895E1E0660F771F881FBB1F6217730740
:1003E0008407BA0720F0621B730B840BBA0BEE1F55
:1003F00088F7E09508950E9402026894B1110C9468
:10040000B90208950E949E0288F09F5798F0B92F74
:100410009927B751B0F0E1F0660F771F881F991F39
:100420001AF0BA95C9F714C0B13091F00E94B80221
:10043000B1E008950C94B802672F782F8827B85F31
:1004400039F0B93FCCF3869577956795B395D9F791
:100450003EF490958095709561957F4F8F4F9F4F9B
:100460000895E89409C097FB3EF4909580957095A7
:1004700061957F4F8F4F9F4F9923A9F0F92F96E9F0
:10048000BB279395F695879577956795B795F11165
:10049000F8CFFAF4BB0F11F460FF1BC06F5F7F4F02
:1004A0008F4F9F4F16C0882311F096E911C0772314
:1004B00021F09EE8872F762F05C0662371F096E81D
:1004C000862F70E060E02AF09A95660F771F881FEC
:1004D000DAF7880F9695879597F9089597F99F67AA
:1004E00080E870E060E008959FEF80EC08950024BC
:1004F0000A941616170618060906089500240A9489
:1005000012161306140605060895092E0394000C0E
:1005100011F4882352F0BB0F40F4BF2B11F460FF9D
:1005200004C06F5F7F4F8F4F9F4F089557FD9058C6
:10053000440F551F59F05F3F71F04795880F97FBA7
:10054000991F61F09F3F79F0879508951216130661
:100550001406551FF2CF4695F1DF08C01616170690
:100560001806991FF1CF86957105610508940895C5
:10057000E894BB2766277727CB0197F908950E9457
:10058000D2020C9485020E94770238F00E947E020B
:1005900020F0952311F00C946E020C947402112437
:1005A0000C94B9020E94960270F3959FC1F3950FC7
:1005B00050E0551F629FF001729FBB27F00DB11DE7
:1005C000639FAA27F00DB11DAA1F649F6627B00D77
:1005D000A11D661F829F2227B00DA11D621F739F60
:1005E000B00DA11D621F839FA00D611D221F749F6E
:1005F0003327A00D611D231F849F600D211D822FB5
:10060000762F6A2F11249F5750409AF0F1F08823DB
:100610004AF0EE0FFF1FBB1F661F771F881F915008
:100620005040A9F79E3F510580F00C946E020C9447
:10063000B9025F3FE4F3983ED4F3869577956795CA
:10064000B795F795E7959F5FC1F7FE2B880F911D32
:0C0650009695879597F90895F894FFCFD0
:00000001FF
